:020000040800F2
:10000000C8420020950200082F1200089511000830
:100010002D12000819040008A319000800000000B0
:10002000000000000000000000000000D9010008EE
:100030005D040008000000002D020008D51400082F
:10004000AF020008AF020008AF020008AF020008CC
:10005000AF020008AF020008AF020008AF020008BC
:10006000AF020008AF020008AF020008AF020008AC
:10007000AF020008AF020008AF020008AF0200089C
:10008000AF020008AF020008AF020008AF0200088C
:10009000AF020008AF020008AF020008AF0200087C
:1000A000AF020008C9150008AF020008AF0200083F
:1000B000AF020008AF020008AF020008AF0200085C
:1000C000AF020008AF020008AF020008AF0200084C
:1000D000AF020008AF020008AF020008AF0200083C
:1000E000AF020008AF020008AF020008AF0200082C
:1000F000AF020008AF020008AF020008AF0200081C
:10010000AF020008AF020008AF020008AF0200080B
:10011000AF020008AF020008AF020008AF020008FB
:10012000AF020008AF020008AF020008AF020008EB
:10013000AF0200080000000000000000AF0200084D
:10014000AF020008AF020008AF020008AF020008CB
:10015000AF020008AF020008AF020008AF020008BB
:10016000AF020008AF020008AF020008AF020008AB
:10017000AF020008AF020008AF0200080000000054
:1001800000000000AF0200080000000000000000B6
:10019000AF0200080000000000000000AF020008ED
:1001A000000000000000000000000000AF02000896
:1001B000AF020008AF020008AF020008AF0200085B
:1001C000AF020008DFF80CD000F014F90048004737
:1001D000011E0008C84200202B4B19680868B0E8CF
:1001E000F04F80F30988BFF36F8F4FF0000080F36A
:1001F000118870470000000006480068006880F31E
:10020000088862B661B6BFF34F8FBFF36F8F00DF10
:1002100000BF00BF08ED00E0DFF80C00016841F40A
:1002200070010160704700BF88ED00E0EFF30980C6
:10023000BFF36F8F144B1A681EF0100F08BF20ED2C
:10024000108A20E9F04F106008B44FF0500080F39E
:100250001188BFF34F8FBFF36F8F02F0E7FD4FF0B0
:10026000000080F3118808BC19680868B0E8F04FF6
:100270001EF0100F08BFB0EC108A80F30988BFF39E
:100280006F8F704700BF00BF38000020EFF305807C
:10029000704700000648804706480047FEE7FEE733
:1002A000FEE7FEE7FEE7FEE7FEE7FEE7FEE7FEE726
:1002B00075150008C50100082DE9F05F054600200E
:1002C00092469B4688460646814640241BE02846C7
:1002D00041464746224600F07CF853465A46C01A2B
:1002E000914110D311461846224600F063F82D1AAA
:1002F00067EB01084F4622460120002100F05AF822
:1003000017EB00094E41201EA4F10104DFDC484632
:1003100031462A464346BDE8F09F00000649074A99
:100320000868504343F2390210440860400870479F
:100330000149086070470000AC0000206D4EC641C6
:1003400040EA01039B0703D009E008C9121F08C057
:10035000042AFAD203E011F8013B00F8013B521ED7
:10036000F9D27047D2B201E000F8012B491EFBD24E
:1003700070470022F6E710B513460A4604461946B0
:10038000FFF7F0FF204610BD30B50B4601460020B8
:100390002022012409E021FA02F59D4205D303FA47
:1003A00002F5491B04FA02F52844151EA2F10102C8
:1003B000F1DC30BD202A04DB203A00FA02F10020F3
:1003C00070479140C2F1200320FA03F31943904093
:1003D0007047202A04DB203A21FA02F000217047FE
:1003E00021FA02F3D040C2F120029140084319469D
:1003F00070470000064C074D06E0E06840F001033E
:1004000094E8070098471034AC42F6D3FFF7DEFEBD
:10041000A43A0008C43A0008FEE7000010B50AA09C
:1004200001F0C0FAFFF77AFF00EBD07121F0010173
:10043000094C401A04216062E06801F071FDE06936
:10044000401CE06110BD0000686F726C6F67652032
:100450003A200A0D00000000000000207047000054
:1004600008B54FF6FF7301226946044800F0D8FD35
:100470009DF80000062800D0FEE708BDB40000206B
:1004800070B5044600F0ECF80546601C02D0044844
:100490000078044400F0E4F8401BA042FAD370BD99
:1004A000280000202DE9F84FDFF88091002209F1A3
:1004B000040A0AF1040B4FF00F080BF1040E012699
:1004C0000B6896403340B34271D14C68022C01D086
:1004D000122C11D1D40800EB84073D6A5407E40EB6
:1004E00008FA04FC25EA0C05D1F810C00CFA04FC4B
:1004F0004CEA050CC7F820C007685400032591F8A2
:1005000004C0A5400CF0030CAF430CFA04FC4CEA09
:10051000070CC0F800C04F68012F05D0022F03D090
:10052000112F01D0122F11D18768D1F80CC0AF4321
:100530000CFA04FC4CEA070CC0F808C04768B74343
:100540000E79C6F3001696403E434660C668AE4339
:100550008D68A5403543C5604C68E40060D5344CD7
:10056000256845F480452560246822F0030504F4DD
:10057000804400942F4C2E19D6F808789407250F44
:1005800008FA05F4A7432C4CA04201D100241FE037
:100590002A4CA04201D101241AE0294CA04201D1E9
:1005A000022415E0274CA04202D1032410E037E0DA
:1005B000254CA04201D104240AE0244CA04201D1E0
:1005C000052405E0224CA04201D1062400E00724C6
:1005D000AC403C43C6F80848D9F800404D464E6848
:1005E0009C43F60300D51C432C60DAF800405546C6
:1005F0004E689C43B60300D51C432C60DBF80040DA
:100600005D464E689C43F60200D51C432C60DEF824
:10061000004075464E689C43B60200D51C432C60D2
:10062000521C102AFFF44BAFBDE8F88F003C01408C
:100630004438024000300140000002400004024003
:1006400000080240000C024000100240001402406A
:10065000001802400AB1816170470904FBE70000FD
:100660000148806870470000280000200248816827
:100670000278114481607047280000200B4810B5B3
:10068000016841F400710160016841F4806101601A
:10069000016841F480710160032000F08BF80020B4
:1006A00000F006F800F03EF8002010BD003C0240CB
:1006B00010B5014688B00022192000F05BF819201F
:1006C00000F04CF813480024016841F0010101607A
:1006D000006805A900F001000690684600F014F9D2
:1006E00000F042F90C490D4AB0FBF1F10C48491EEB
:1006F000026040F2E732C0E90324C0E9011400F0CF
:1007000029FB10B1012008B010BD054800F03EFBE8
:10071000F9E700004438024040420F000000014069
:10072000340100200C4882B0016841F4804101602E
:10073000006800F4804000900748001F016841F005
:10074000805101600068002200F0805000900F216D
:10075000901E02B000F00EB84438024000F01F02B4
:10076000012191404009800000F1E020C0F8001113
:1007700070470000F0B40E4B1B68C3F30223C3F1B3
:100780000704042C00D904241D1D072D01D20023C9
:1007900000E0DB1E012606FA04F56D1E0D409D40AB
:1007A0009E40761E164045EA0601F0BC00F040BDB2
:1007B0000CED00E0064A00F0070110684FF6FF0359
:1007C000184040EA012003490843106070470000C8
:1007D0000CED00E00000FA052DE9F0470D4604009D
:1007E00065D0DFF81491D9F80000EFB200F00F00E7
:1007F000A84207D289F80070D9F8000000F00F0075
:10080000A84254D120683D4E810712D5400703D538
:10081000306840F4E05030602078000703D530683D
:1008200040F4604030603068A16820F0F000084378
:1008300030602078C0072DD0304960680839012821
:1008400012D0022813D0032811D009688907002983
:100850002DDA316821F0030101433160FFF700FF19
:10086000804641F2883A0EE009688903EFE709689B
:100870008901ECE7FFF7F4FEA0EB0801514502D92E
:100880000320BDE8F0873068616800F00C00B0EB31
:10089000810FEFD1D9F80010484601F00F01A942AD
:1008A00007D90770006800F00F00A84201D00120AE
:1008B000E7E72078400705D53068E16820F4E0508C
:1008C000084330602078000706D53068216920F49D
:1008D000604040EAC100306000F056F83168084AD4
:1008E000C1F30311515CC840064908600020FFF7BE
:1008F000DFFE0020C5E70000003C0240083802404F
:100900004C3A0008340000200F2202600C4A1368A1
:1009100003F003034360136803F0F003836013687C
:1009200003F4E053C36012684FF4E05303EAD202C9
:1009300002610448006800F00F0008607047000082
:1009400008380240003C0240044805490068096834
:10095000044AC1F38221515CC84070473400002032
:10096000083802405C3A00080448054900680968F4
:10097000044AC1F34231515CC84070473400002042
:10098000083802405C3A0008224810B5006810F0B0
:100990000C01214815D0214B042911D01D4C241FD6
:1009A00008290FD00C290CD1216801F03F022168E1
:1009B000490221D52068C0F38810A0FB030120E084
:1009C000184610BD216801F03F022168490205D593
:1009D0002068C0F38810A0FB030104E02168C1F384
:1009E0008811A1FB00010023FFF766FC2168C1F319
:1009F0000141491C49000AE02168C1F38811A1FBAB
:100A000000010023FFF758FC2168C1F30271B0FB1D
:100A1000F1F010BD083802400024F40040787D0158
:100A20002DE9F84F04460078C44EC007A6F104052E
:100A30004ED0301D0168C1F3810101290FD001683A
:100A4000C1F38101022902D13168490207D400684B
:100A5000C0F38100032809D13068400206D5286818
:100A6000800335D5606800286FD031E06068B0F54C
:100A7000803F10D0B0F5A02F286810D020F480302F
:100A80002860286820F4802028606068A0B1FFF703
:100A9000E7FD07460CE0286840F48030F4E740F4B6
:100AA00080202860F7E7FFF7DBFDC01B642875D8BE
:100AB00028688003F7D50BE0FFF7D2FD074604E076
:100AC000FFF7CEFDC01B6428F1D828688003F7D457
:100AD0002078DFF86CA280074FF0000B44D59748D0
:100AE000001D016811F00C0F0FD00168C1F38101E6
:100AF000022902D13168490207D50068C0F381009C
:100B0000032809D13068400206D42868800714D52C
:100B1000E068012819D110E0E068B8B10120CAF8F6
:100B20000000FFF79DFD074604E0FFF799FDC01B9D
:100B30000228BCD828688007F7D52868216920F0EA
:100B4000F80040EAC10028600EE0F4E0CAF800B006
:100B5000FFF786FD074604E0FFF782FDC01B022871
:100B60001CD828688007F7D42078000726D5DFF83E
:100B7000CC817448616908F1700881B1012101607C
:100B8000FFF76EFD074604E0FFF76AFDC01B022871
:100B900004D8D8F800008007F6D50FE088E0C0F848
:100BA00000B0FFF75DFD074604E0FFF759FDC01BED
:100BB00002287DD8D8F800008007F6D420784007B6
:100BC00069D55E484FF000093C300068C0000BD486
:100BD0005A483C30016841F08051016000684FF094
:100BE000010900F08050009057480168C90511D4F0
:100BF0000168804641F480710160FFF731FD0746CE
:100C000004E0FFF72DFDC01B022851D8D8F80000E2
:100C1000C005F6D5494FA0686C3701280FD00528CC
:100C2000386810D020F001003860386820F00400E7
:100C30003860A068B8B1FFF713FD80460FE0386850
:100C400040F00100F4E740F004003860F7E7FFF7F8
:100C500007FDA0EB080141F28830814263D8386873
:100C60008007F4D50EE0FFF7FBFC804607E0FFF7B6
:100C7000F7FCA0EB080141F28830814253D8386874
:100C80008007F4D4B9F1000F05D02C483C3001683E
:100C900021F080510160A069B0B32849091D09689D
:100CA000C1F38101022946D00228CAF860B000E0F1
:100CB00039E003D0FFF7D4FC044637E0FFF7D0FC5F
:100CC000074604E0FFF7CCFCC01B02282BD828689D
:100CD0008001F7D4F4E907010843E1681B4A490899
:100CE00002EB0141A26841EA82110843217C40EAFB
:100CF0000160217D40EA017030600120CAF8600087
:100D0000FFF7AEFC044605E013E0FFF7A9FC001B6B
:100D1000022808D828688001F7D50AE0FFF7A0FC70
:100D2000001B022802D90320BDE8F88F2868800143
:100D3000F4D40020F8E70120F6E700000438024070
:100D400000004742800E4742007000400000FFFF55
:100D50007047704710B5040003D094F8390010B103
:100D600007E0012010BD002084F83800204600F084
:100D70000CF8022084F83900211D206800F02AFCBC
:100D8000012084F83900002010BD70470168CA684E
:100D900042F00102CA600068016841F0010101608F
:100DA00000207047704770B50446006801694FF035
:100DB0000005C943890715D4C168C943890711D4FF
:100DC000E91E0161012020762068806980072046A5
:100DD00002D0FFF7E7FF04E000F098F8204600F0AB
:100DE00096F8257620680169C943490717D4C16878
:100DF000C943490713D46FF0040101610220207632
:100E00002068806910F4407F204602D0FFF7CAFFB7
:100E100004E000F07BF8204600F079F825762068A1
:100E20000169C943090716D4C168C943090712D427
:100E30006FF008010161042020762068C0698007F6
:100E4000204602D0FFF7AEFF04E000F05FF8204636
:100E500000F05DF8257620680169C943C90617D4FA
:100E6000C168C943C90613D46FF01001016108209D
:100E700020762068C06910F4407F204602D0FFF73A
:100E800091FF04E000F042F8204600F040F825769B
:100E900020680169C943C90708D1C168C943C907A6
:100EA00004D1891E0161204600F032F820680169F2
:100EB000C943090609D4C168C943090605D46FF0BE
:100EC000800101612046FFF743FF20680169C943A3
:100ED000490609D4C168C943490605D46FF04001E9
:100EE0000161204600F01EF820680169C9438906A7
:100EF0000BD4C168C943890607D46FF02001016192
:100F00002046BDE87040FFF724BF70BD70477047B2
:100F100000680349884201D1FFF7A8BB7047000071
:100F200000000140704770B5040004D094F8390007
:100F3000002510B106E0012070BD84F8385020462D
:100F400000F022F8242084F839002068C16821F4D8
:100F50000051C160204600F09DFB2068016921F42A
:100F6000904101612068416921F02A0141612068B6
:100F7000C16841F40051C160E563202084F8390064
:100F800084F83A00002070BDF0B587B00446142103
:100F90006846FFF7EEF91F4A1D4F21681D4B103AB6
:100FA0000324022501261C48B94213D1196841F4D3
:100FB00000211960196801F400210591116841F0C0
:100FC00001011160116801F0010105918DE87000C7
:100FD000082116E0114FB94218D1196841F40031C7
:100FE0001960196801F400310591116841F001019F
:100FF0001160116801F0010105910C218DE862007A
:101000000721CDE903416946FFF74CFA07B0F0BD6F
:10101000004C0040403802400000024000440040C4
:101020002DE9F843044690F83A001E4617460D464F
:10103000202850D1A5B19FB194F8380001284AD09A
:10104000012084F838004FF00008C4F83C802220CA
:1010500084F83A00FFF704FBA7858146E78530E076
:101060000120BDE8F883E08D401EE085A0684B4676
:10107000B0F5805F4FF000024FF02001204600964F
:1010800004D000F05DFC98B10320EAE700F058FCC2
:101090000028F9D1206900282068406803D0C1B237
:1010A00025F8011B0DE0C0F3080125F8021B08E03C
:1010B000206900282068406801D000F07F0005F812
:1010C000010BE08D0028CED1202084F83A0084F86E
:1010D00038800020C5E70220C3E72DE9F843044625
:1010E00090F839001E4617460D46202850D1A5B16C
:1010F0009FB194F8380001284AD0012084F83800C4
:101100004FF00008C4F83C80212084F83900FFF734
:10111000A7FAA7848146E78426E00120BDE8F8838A
:10112000E08C401EE084A0684B46B0F5805F4FF035
:1011300000024FF080012046009603D000F000FC32
:10114000E8B90DE000F0FCFBC8B928882168C0F3BD
:1011500008004860206908B16D1C05E0AD1C03E083
:10116000216815F8010B4860E08C0028D8D14B4667
:10117000002240212046009600F0E2FB08B1032047
:10118000CCE7202084F8390084F838800020C5E7B7
:101190000220C3E7FEE7000070B586B01421684660
:1011A000FFF7E7F81E480024016841F001010160E3
:1011B000016801F001010591016841F0020101603F
:1011C0000068184D00F002000590012220212846F9
:1011D000FFF740FA144E002207213046FFF73AFA93
:1011E000202000901120CDE901046946284603948F
:1011F000FFF758F9072000900120CDE90104694666
:1012000030460394FFF74EF97820CDE90004022020
:10121000029069463046FFF745F906B070BD000000
:10122000303802400000024000040240FEE77047F0
:101230000907090E002806DA00F00F0000F1E0208F
:1012400080F8141D704700F1E02080F8001470470A
:101250000EB5002713231A4639463846009700F08A
:101260004BFD002001F084FB4FF6FF7001F0ACFB5A
:101270000421084601F0D4FB4E2001F07BFA042142
:10128000052001F0CDFB6F2001F074FA0421062047
:1012900001F0C6FB6D2001F06DFA0421072001F07A
:1012A000BFFB622001F066FA0421082001F0B8FBC0
:1012B000722001F05FFA0421092001F0B1FB6520E2
:1012C00001F058FA0521042001F0AAFB642001F086
:1012D00051FA0521084601F0A3FB652001F04AFA06
:1012E0000521072001F09CFB742001F043FA052141
:1012F000082001F095FB6F2001F03CFA0521092040
:1013000001F08EFB752001F035FA05210A2001F06D
:1013100087FB722001F02EFA05210B2001F080FBE3
:10132000732001F027FA05210D2001F079FB3A2006
:1013300001F020FA64242A4D4FF0FF380A26424675
:101340000521684600F01AFE26A000F02BFB0A23B8
:10135000052208210420009700F0CEFC082104207B
:1013600001F05EFBD5E90701884217D2B0FBF4F02B
:1013700080B201F02BFA0821052001F051FBE86949
:10138000B0FBF4F104FB1100B0FBF6F001F01EFA23
:101390000821062001F044FBE86916E0B1FBF4F0F7
:1013A00080B201F013FA0821052001F039FB286A08
:1013B000B0FBF4F104FB1100B0FBF6F001F006FA0B
:1013C0000821062001F02CFB286AB0FBF4F104FB95
:1013D0001100B0FBF6F106FB110001F0F7F9AEE7E2
:1013E00000000020416666696368657572203A20D6
:1013F0000A0D0000012000F087FDFBE7012000F04E
:1014000083FDFBE70EB5184C00256E1E2570324695
:101410000421684600F0B2FD606A01280CD0206A01
:10142000401C2062E069216A401A00D5404202282F
:1014300006DA25700DA006E0E069401CE061F2E7E5
:101440000120207011A000F0ADFAD4E9071217A016
:1014500000F0A8FA0521A06800F062FD06212069CD
:1014600000F05EFDD3E700000000002047657374C4
:10147000696F6E546F757273203A20616E6F6D6183
:101480006C6965203D20300A0D00000047657374CB
:10149000696F6E546F757273203A20616E6F6D6163
:1014A0006C6965203D20310A0D0000006E62546FAA
:1014B000757231203D2025642C206E62546F757248
:1014C00032203D2025640A0D00000000012000F0BC
:1014D0001BFDFBE710B5502080F31188BFF34F8F41
:1014E000BFF36F8F02F0B8F818B104494FF0805085
:1014F0000860002080F3118810BD000004ED00E0BA
:1015000010B594B034216846FEF733FF14210DA8BE
:10151000FEF72FFF15480024016841F0805101605B
:10152000006800F0805012901148016821F4404199
:1015300041F4804101600068069400F4404012903C
:101540000220009001200390102004906846FFF7CD
:1015500067FA0F20CDE90D040F94109400210DA817
:101560001194FFF739F914B010BD00004038024063
:10157000007000401048016841F4700101600F489C
:10158000016841F0010101600C4A0021083211603C
:1015900002680B4B1A400260031D0A4A1A60026877
:1015A00022F48022026005480C300160024958068E
:1015B000803908607047000088ED00E00038024084
:1015C000FFFFF6FE103000240148FFF7ECBB0000DF
:1015D00034010020F0B50268234D244E244FDFF87B
:1015E00094C0254B4FF0804EA84209D0704507D0DB
:1015F000B04205D0B84203D0604501D0984203D133
:1016000022F070044A682243A8421BD0704519D0CA
:10161000B04217D0B84215D0604513D0984211D0CF
:10162000164CA0420ED0164CA0420BD0154CA04236
:1016300008D0154CA04205D0144CA04202D0144C46
:10164000A04203D122F44074CA68224302608A682F
:10165000C2620A688262A84201D0984201D1096937
:10166000016301214161F0BD000001400004004020
:1016700000080040000C0040000401400040014010
:10168000004401400048014000180040001C004098
:10169000002000402DE9F04104460068016921F472
:1016A0004052E168114301612068C16849F20C624F
:1016B00091432369A268E5691A4363692B431A437E
:1016C0000A43C26020684169A26921F440710A435B
:1016D0004261E0696425B0F5004F974A9749206858
:1016E0004FF032083FD0884201D090427CD1FFF7C2
:1016F0003BF900EBC00101EB001061688900B0FB11
:10170000F1F6FFF731F900EBC00101EB0010616861
:101710008900B0FBF1F0B0FBF5F06FF01801484321
:1017200006EB800108EB0110B0FBF5F000F0F006CD
:10173000FFF71AF900EBC00101EB001061688900A6
:10174000B0FBF1F0B0FBF5F006EB0016FFF70CF97B
:1017500000EBC00101EB001061688900B0FBF1F7FC
:10176000FFF702F9D2E0884201D090423DD1FFF765
:10177000FBF800EBC00101EB001061684900B0FB11
:10178000F1F0B0FBF5F00601FFF7EEF800EBC00159
:1017900001EB001061684900B0FBF1F7FFF7E4F8D6
:1017A00000EBC00101EB001061684900B0FBF1F0F3
:1017B000B0FBF5F06FF01801484307EB800108EB30
:1017C000C100B0FBF5F000F0F80006EB4006FFF7B3
:1017D000CBF800EBC00101EB001061684900B0FBE1
:1017E000F1F7FFF7C1F83CE055E0FFF7ADF800EB8B
:1017F000C00101EB001061684900B0FBF1F0B0FBE3
:10180000F5F00601FFF7A0F800EBC00101EB0010B6
:1018100061684900B0FBF1F7FFF796F800EBC001F3
:1018200001EB001061684900B0FBF1F0B0FBF5F08E
:101830006FF01801484307EB800108EBC100B0FBD3
:10184000F5F000F0F80006EB4006FFF77DF800EB3E
:10185000C00101EB001061684900B0FBF1F7FFF730
:1018600073F800EBC00101EB001061684900B0FBA8
:10187000F1F0B0FBF5F06FF01801484307EB800181
:1018800008EBC100B0FBF5F000F007002168304420
:101890008860BDE8F081FFF757F800EBC00101EB6D
:1018A000001061688900B0FBF1F6FFF74DF800EB1E
:1018B000C00101EB001061688900B0FBF1F0B0FBE2
:1018C000F5F06FF01801484306EB800108EB0110BA
:1018D000B0FBF5F000F0F006FFF736F800EBC001C2
:1018E00001EB001061688900B0FBF1F0B0FBF5F08E
:1018F00006EB0016FFF728F800EBC00101EB001023
:1019000061688900B0FBF1F7FFF71EF800EBC0013A
:1019100001EB001061688900B0FBF1F0B0FBF5F05D
:101920006FF01801484307EB800108EB0110B0FB92
:10193000F5F000F00F00A9E700140140001001408D
:101940002DE9F0411E46174688460446069D1CE0D8
:10195000681C1AD025B1FEF783FE801BA84214D95B
:101960002068C16821F4D071C1602068416921F00C
:1019700001014161202084F8390084F83A000020F8
:1019800084F838000320BDE8F0812068016838EA57
:10199000010004D00020B842DAD00020F3E7012093
:1019A000F9E7FEE70FB4054B10B503A9044A029806
:1019B00000F018F810BC5DF814FB0000391B00089B
:1019C000B000002002E008C8121F08C1002AFAD1A6
:1019D00070477047002001E001C1121F002AFBD1AF
:1019E000704700002DE9FF4F89B09B460446002553
:1019F00006E025280BD05A460B999047641C6D1CB5
:101A000020780028F5D10DB02846BDE8F08F0027DA
:101A1000B8460122474900E0074314F8013F203B44
:101A200002FA03F00842F7D120782E2819D114F8D1
:101A3000010F47F004072A280ED06FF02F022078FC
:101A4000A0F1300109290CD808EB880102EB410113
:101A500000EB0108641CF2E70A98641C50F8048B40
:101A60000A9020780028CED0642808D0692806D0B3
:101A700075281ED05A460B9990476D1C58E00A995C
:101A80004FF00A0901C90A91002802DA40422D21CB
:101A900002E0390504D52B218DF82010012103E047
:101AA000F90704D02021F7E78A4608AE0DE00021AF
:101AB000FAE70A994FF00A0901C90A91F7E749467E
:101AC000FEF762FC303106F8011D0028F7D1ADEBBE
:101AD000060000F12009780701D44FF00108C8453D
:101AE00002DDA8EB090000E000208046002706E0A8
:101AF00008A85A46C05D0B9990476D1C7F1C57453E
:101B0000F6DB04E030205A460B9990476D1CB8F183
:101B10000001A8F10108F5DC05E016F8010B5A46B2
:101B20000B9990476D1CB9F10001A9F10109F4DC92
:101B3000641C65E70928010013B54FF6FF73012205
:101B400069460248FFF7C9FA00981CBDF40000205E
:101B5000FEB50024FF258DF80840D72640F6FF7714
:101B60008DF804506423012201A92548FFF7B5FA36
:101B70008DF804606423012201A92148FFF7ADFA22
:101B80002CB93B46012202A91D48FFF749FA9DF8EE
:101B90000800062829D01B4C002220212046FEF7F1
:101BA00059FD012220212046FEF754FD4FF4FA5042
:101BB000FEF766FC8DF804506423012201A9104849
:101BC000FFF78BFA8DF804606423012201A90C4809
:101BD000FFF783FA3B46012202A90948FFF720FAE2
:101BE0009DF8080001240628BAD14FF6E0707F2343
:101BF000002100901A46084600F006F8FEBD0000DD
:101C0000B4000020000002402DE9FC47074638A040
:101C10001C46006815460E464FF6FF790190DDF828
:101C200028804B46012201A93248FFF756FA4B465D
:101C300001220DF105012F48FFF74FFA380A8DF800
:101C400000004B46012269462A48FFF746FA8DF804
:101C500000704B46012269462648FFF73EFA300ADB
:101C60008DF800004B46012269462248FFF735FAFD
:101C70008DF800604B46012269461E48FFF72DFA99
:101C8000280A8DF800004B46012269461948FFF7E3
:101C900024FA8DF800504B46012269461548FFF79B
:101CA0001CFA200A8DF800004B46012269461148B3
:101CB000FFF713FA8DF800404B46012269460D48A4
:101CC000FFF70BFA4FEA18208DF800004B4601226F
:101CD00069460848FFF701FA8DF800804B4601225B
:101CE00069460448FFF7F9F9FEF7BAFBBDE8FC873F
:101CF000FFCF0000B40000202DE9FC4704463BA0C4
:101D00009946006890460F464FF6FF7501900A9E6F
:101D10002B46012201A93648FFF7DFF92B460122A5
:101D20000DF105013248FFF7D8F9C4EBC404200ACD
:101D30008DF800002B46012269462D48FFF7CDF9AA
:101D40008DF800402B46012269462948FFF7C5F966
:101D500005EAC704200A8DF800002B4601226946D7
:101D60002348FFF7BAF98DF800402B460122694657
:101D70001F48FFF7B2F9C8EBC804200A8DF800002D
:101D80002B46012269461A48FFF7A7F98DF8004053
:101D90002B46012269461648FFF79FF905EAC90458
:101DA000200A8DF800002B46012269461048FFF7F3
:101DB00094F98DF800402B46012269460C48FFF744
:101DC0008CF9300A8DF800002B460122694608483C
:101DD000FFF783F98DF800602B460122694604481D
:101DE000FFF77BF9FEF73CFBBDE8FC87FFCE000068
:101DF000B4000020EFF30580002800D001207047D8
:101E00009AB0FEF73BFCFFF77BFBFFF7C5F93748BD
:101E100035494FF4165500240160C0E901540C26E1
:101E2000C460C0E904468461C461FFF77CF82F48B0
:101E30002F4940380160C0E90154C460C0E904463C
:101E40008461C461FFF76FF8FFF782FE19214FF438
:101E5000E13000F059FD2748002201210068199067
:101E600019A800F0CDF8244C4FF47A71A06100F06D
:101E7000D7F820491422091D6846FEF761FA0021AF
:101E8000684600F0A6F81B4960601422183105A8C6
:101E9000FEF756FA002105A800F09BF81549A0604E
:101EA00014222C310AA8FEF74BFA00210AA800F0F0
:101EB00090F81049E060142240310FA8FEF740FA74
:101EC00000210FA800F085F80A492061142254313E
:101ED00014A8FEF735FA002114A800F07AF8606122
:101EE00000F019F8FEE7000000440040F400002074
:101EF000004C0040E43900080000002001460020AA
:101F0000842900D0C81C704710B500B9012000F02A
:101F1000DBFE002010BD10B500F048FF002010BD12
:101F2000FEB500220C46054601920292FFF762FFC1
:101F30004FF0004698B101A8009002AB0122214663
:101F4000284601F0FDFA012811D1019888B10A490B
:101F5000F0080860BFF34F8FBFF36F8F09E002AB4B
:101F600001222146284601F085FA012801D0304699
:101F7000FEBD0298FEBD000004ED00E0FEB50026A7
:101F800005460F4634460196501C06D002B1144651
:101F9000FFF730FF20B1822015E04FF0FF34F7E764
:101FA00023463946002001AA01F0C0FB012804D0D5
:101FB0000CB1402007E0009606E00198002801DA05
:101FC000862000E0082000909DE8070085E80700D3
:101FD000FEBD3EB504460D46B0F90800FFF78EFF82
:101FE00002A9CDE90001208A2B4682B2D4E9001073
:101FF00001F014FA012801D000203EBD02983EBD38
:1020000008B5006813460090012905D0002201217F
:1020100002A001F06DFC08BD0122F8E700000000FD
:102020002DE9FC414FF000050C0007462E460195B6
:1020300000D10124FFF7DEFE009690B101AB2246ED
:102040000921384601F0A0FC012812D1019888B17D
:102050000A494FF080500860BFF34F8FBFF36F8F76
:1020600008E0002322460421384601F08DFC0128B7
:1020700000D0FF252846BDE8FC81000004ED00E00B
:102080002DE9F041184E0F460446F5683068001DF2
:1020900000F004FD38B9306890F82C100120884019
:1020A000316981433161601C07D137B13168BDE8C6
:1020B000F0410E48091D00F02ABD30682C44AC42A6
:1020C0004460316805D2B06BBDE8F041091D00F0F5
:1020D00006BD706B091D00F002FDB06A844200D29B
:1020E000B462BDE8F0810000380000208C020020BE
:1020F0002DE9F041054600F017FD2E4EB068401C5A
:10210000B06030682C4F10B1706940B32DE035607D
:10211000B068012829D1002404EB840007EB80007B
:1021200000F0CFFC641C072CF6D323488C3000F061
:10213000C8FC2148A03000F0C4FC1F48B43000F0B7
:10214000C0FC1D48C83000F0BCFC1B48DC3000F06F
:10215000B8FC19488C3070631430B06305E0306807
:10216000E96AC06A884200D83560706A0121401C63
:102170007062E86A326981401143316100EB80008E
:1021800007EB8000291D00F0C2FC00F0EDFC706937
:1021900000280CD03068E96AC06A884207D2074933
:1021A0004FF080500860BFF34F8FBFF36F8FBDE8D3
:1021B000F081000038000020B001002004ED00E0B4
:1021C00010B500F0B1FC0E4C2068A0B90D4800F02D
:1021D00078FC0C48143000F074FC0A48E0601430BD
:1021E000206100220C210A2000F0C0FE206010B106
:1021F00005A100F035FDBDE8104000F0B5BC0000C1
:1022000074000020A0020020546D725100000000F4
:1022100070B5124E124D1CE000F000FE306820B187
:10222000002401F003FBA4B901E00124F9E700F068
:102230007BFCF068C468201D00F030FCA868401EDC
:10224000A8606868401E686000F08EFC204600F0C0
:1022500049F868680028DFD170BD000078020020CE
:102260003800002030B4026C0B46002A0BD0C16845
:102270001144C1604468A14201D30168C16030BC0F
:102280001846FEF75DB830BC70472DE9F041856B0C
:10229000164604460027026CFAB17EB1E068FEF7EC
:1022A0004FF8E168206C091AE1602268914202D27D
:1022B0006168081AE060022E0DD00EE0A068FEF7FB
:1022C0003FF8216CA0680844A0606168884204D38C
:1022D0002068A06001E005B16D1E6D1CA563384645
:1022E000BDE8F08110B50446006B00F051FC2046BB
:1022F000BDE8104000F04CBC10484FF4705142074C
:1023000006D0C01D0D4920F00700411AC1F57051DB
:102310000B4A00230144C2E900030839103A21F0B6
:10232000070111604B600B600B1AC0E9001393604A
:102330004FF000405360D06070470000C80200209A
:1023400098000020074E4FF08054074DFFF760FFC4
:1023500030680128FAD92C60BFF34F8FBFF36F8F1D
:10236000F4E70000B001002004ED00E02DE9F047A3
:102370009A46DDE9097481466FF00303206B03EB95
:1023800082021044089D20F00706700707D05020F5
:1023900080F31188BFF34F8FBFF36F8FFEE72318D1
:1023A0000A5C83F834200A5C12B1401C1028F6D372
:1023B0004FF0000884F84380072D00D30625201D28
:1023C000E56200F089FB04F1180000F085FB246150
:1023D000C5F107006462A061C4F8448084F84880B5
:1023E00052464946304600F079FA2060002F00D06E
:1023F0003C60BDE8F087000030B5114900E01146AF
:102400000A688242FBD34B685C18844203D140685F
:1024100018444860084643681C18944209D1084C87
:10242000103C2468A24209D052681A4442600A68EB
:1024300012680260814200D0086030BD0460F9E794
:102440009800002070B5002441600B4D006191425E
:1024500006D8D11A8269914206D2011D286907E087
:102460009A4203D2994201D3012403E0011DE86896
:1024700000F035FB204670BD7400002010B5044606
:1024800000F052FBA06B20B1002400F06DFB204651
:1024900010BD0124F9E7000030B585B02B4D4BE0AD
:1024A0000198002848DB039C606910B1201D00F0F2
:1024B000F5FA04A800F0B6F8024601980A283BD2C3
:1024C000DFE800F00505053A263705053A260298AB
:1024D000A169034601442046FFF7B4FF00B3616AD7
:1024E00020468847E069012826D100200090029804
:1024F000A169002342181946204601F045FA78B92F
:10250000502080F31188BFF34F8FBFF36F8FFEE72A
:102510000298A06128B1811813462046FFF792FF68
:102520000AE0502080F31188BFF34F8FBFF36F8F05
:10253000FEE7204600F02CFB00231A4601A928687C
:1025400000F038FD0028ABD105B030BD740000208C
:102550002DE9FC410E46054600F060FC01A800F0A4
:1025600061F80446019818B101F060F9BDE8FC81FA
:10257000224FAEB138690068A8B30026291B324645
:10258000386800F07FFB01F051F90028EED11C49BA
:102590004FF080500860BFF34F8FBFF36F8FE5E7B8
:1025A000A542EBD801F042F9F8682646C068C46835
:1025B000201D00F073FAE069012810D1A0692B46B4
:1025C000411932462046FFF73DFF40B10020034647
:1025D000014600902A46204601F0D6F920B1616AF2
:1025E00020468847C2E707E0502080F31188BFF3F8
:1025F0004F8FBFF36F8FFEE70126BFE77400002007
:1026000004ED00E00648416B096829B1416BC968D7
:10261000C9684968816270474FF0FF31FAE70000EE
:102620003800002070B5054601F010F8064E04464B
:10263000B068844203D200F009F8012000E00020D5
:1026400028602046B46070BD74000020F8B5194EB3
:102650001FE0C068C4680568201D00F01FFA616AA9
:1026600020468847E069012813D1A0692844A84280
:1026700006D924616060211DF06800F030FA08E09E
:1026800000200346014600902A46204601F07CF9CE
:1026900038B1F06801680029DBD13169C6E903105F
:1026A000F8BD502080F31188BFF34F8FBFF36F8FB9
:1026B000FEE700007400002008484068401C4FF00E
:1026C000500080F3118804D0BFF34F8FBFF36F8F9A
:1026D000FEE7BFF34F8FBFF36F8FFEE7A000002030
:1026E000084CE068016839B1002139B10020FFF7DA
:1026F0002FFFFFF7D1FEF4E70121F6E7C06800687D
:10270000F5E70000740000202DE9F041044600F0D8
:102710000BFA94F9455004F1240609E0606A48B1C7
:10272000304601F049F808B100F0F4FA6D1E6DB2C0
:10273000002DF3DC4FF0FF3684F8456000F014FA0A
:1027400000F0F2F994F9445004F1100709E020690F
:1027500048B1384601F030F808B100F0DBFA6D1EE0
:102760006DB2002DF3DC84F84460BDE8F04100F068
:10277000FBB900007CB5044612A04FF6FF75006857
:1027800001902B46012201A90F48FEF7A6FC2B461B
:1027900001220DF105010C48FEF79FFC200A8DF87F
:1027A00000002B46012269460748FEF796FC8DF88B
:1027B00000402B46012269460348FEF78EFCFDF7D8
:1027C0004FFE7CBDFFFE0000B400002070B5044643
:1027D0000A2802D23034A0B20FE0642C0CD20A25B1
:1027E000B4FBF5F0303080B2FFF7C4FFB4FBF5F076
:1027F00005FB1040303000E04120BDE87040FFF79D
:10280000B9BF00002DE9F0410546002600F006FBA7
:10281000314F386808B9FFF76FFDF86805424BD1B2
:10282000C5B3083568070ED005F00700C0F10800F1
:102830000544680707D0502080F31188BFF34F8FFD
:10284000BFF36F8FFEE72DB37868854234D82249F5
:1028500010310846046801E0214604466068A84239
:1028600002D220680028F7D13868844224D00E684C
:102870002068086060680836411B10290FD960196C
:10288000420708D0502080F31188BFF34F8FBFF369
:102890006F8FFEE710E041606560FFF7ADFD616896
:1028A0007868401A7860BA68904200D2B860F868D8
:1028B00001430020C4E9000100F0B8FF700707D011
:1028C000502080F31188BFF34F8FBFF36F8FFEE767
:1028D0003046BDE8F08100008800002010B5031FDD
:1028E0004FF080741C601B1F21F001011960191F3B
:1028F000044B0B6014390A60091F6FF00202443860
:102900000A6010BDB92600087CB5064616A00C4624
:1029100000684FF6FF7501902B46012201A913486C
:10292000FEF7DBFB2B4601220DF105010F48FEF7F8
:10293000D4FB200A8DF800002B46012269460B4883
:10294000FEF7CBFB8DF800402B4601226946074875
:10295000FEF7C3FB05484660FEF7E5FA6420FDF785
:102960008FFDFDF77DFD7CBD000B0000B400002055
:102970007CB5044612A04FF6FF75006801902B4607
:10298000012201A90F48FEF7A8FB2B4601220DF1F9
:1029900005010C48FEF7A1FB200A8DF800002B462C
:1029A000012269460748FEF798FB8DF800402B4648
:1029B000012269460348FEF790FBFDF751FD7CBDFF
:1029C000FF7E0000B40000207CB5044612A04FF644
:1029D000FF75006801902B46012201A90F48FEF700
:1029E0007CFB2B4601220DF105010C48FEF775FB1F
:1029F000200A8DF800002B46012269460748FEF7A1
:102A00006CFB8DF800402B46012269460348FEF717
:102A100064FBFDF725FD7CBDFF7F0000B4000020B6
:102A20007CB504461BA00D4600684FF6FF7601906A
:102A30003346012201A91848FEF74FFB3346012215
:102A40000DF105011448FEF748FB280A8DF8000037
:102A50003346012269461048FEF73FFB8DF80050CF
:102A60003346012269460C48FEF737FB200A8DF8F1
:102A700000003346012269460748FEF72EFB8DF819
:102A800000403346012269460348FEF726FBFDF766
:102A9000E7FC7CBDFFE40000B4000020D0E9013277
:102AA00001699A60D0E901235A604A68824201D1E3
:102AB00082684A60002202610868401E0860704710
:102AC000704700F108014FF0FF32C0E90112C16008
:102AD000016100210160704700210161704730B53C
:102AE0000C68621C02D000F1080202E0026904E0F6
:102AF0001A4653681D68A542FAD953684B6099601D
:102B00008A60516008610168491C016030BD4268FB
:102B10004A6093688B6093685960916008610168AE
:102B2000491C016070470000502080F31188BFF3FA
:102B30004F8FBFF36F8F0A494868401C48600128D7
:102B40000CD10848006810F0FF0F07D0502080F328
:102B50001188BFF34F8FBFF36F8FFEE77047000000
:102B6000A000002004ED00E00849486828B1401E9C
:102B7000486001D180F311887047502080F311889C
:102B8000BFF34F8FBFF36F8FFEE70000A000002060
:102B900070B5002827D0144DA0F108046068E968DA
:102BA000084207D1502080F31188BFF34F8FBFF345
:102BB0006F8FFEE722683AB1502080F31188BFF38F
:102BC0004F8FBFF36F8FFEE78843606000F026F9F8
:102BD00060686968084468602046FFF70DFCBDE83E
:102BE000704000F023BE70BD8800002006484FF4FE
:102BF0007A710068B0FBF1F14FF0E020491E4161AD
:102C000007210161704700003400002010B5FDF776
:102C10003DFB114910280ED300F1E02090F8F0039D
:102C20000A78904207D2502080F31188BFF34F8F6B
:102C3000BFF36F8FFEE709480068896800F4E06021
:102C4000884207D9502080F31188BFF34F8FBFF31C
:102C50006F8FFEE710BD0000A00000200CED00E02B
:102C600010B5074B002253F832401CB1521C082A01
:102C7000F9D310BD43F8321003EBC201486010BD18
:102C80007001002070B515460E460446FFF74CFF54
:102C900094F944100020491C01D184F8440094F9AF
:102CA0004510491C01D184F84500FFF75DFFA06B7A
:102CB00028B92A46314604F1240000F049F820469C
:102CC000BDE87040FFF720BD10B5020014D00F48DA
:102CD000006B38B1502080F31188BFF34F8FBFF3E2
:102CE0006F8FFEE700F09AF800211046FFF7C8F951
:102CF00000F09CFD002807D105494FF08050086086
:102D0000BFF34F8FBFF36F8F10BD0000380000205E
:102D100004ED00E001490120C8617047380000203F
:102D200010B50C4650B1094909681831FFF7D7FEB4
:102D30002046BDE810400121FFF7A2B9502080F3E2
:102D40001188BFF34F8FBFF36F8FFEE7380000206D
:102D500070B514460D4668B10A4909681831FFF785
:102D6000D6FE0CB14FF0FF3521462846BDE8704035
:102D7000FFF786B9502080F31188BFF34F8FBFF360
:102D80006F8FFEE73800002028B107490A6A026009
:102D9000C96841607047502080F31188BFF34F8F9E
:102DA000BFF36F8FFEE70000380000201CB5174806
:102DB0000024CDE900402346802215A1164800F0EA
:102DC0002DFB012803D100F0BBFD012809D0401CD8
:102DD0001AD1502080F31188BFF34F8FBFF36F8F4C
:102DE000FEE7502080F31188BFF34F8FBFF36F8F42
:102DF00006484FF0FF312C38816201214161C460E7
:102E0000BDE81C4000F040B81CBD0000640000207C
:102E100049444C4500000000452300080248016B6E
:102E2000491C01637047000038000020144A106BF1
:102E300010B10120D06170470020D06110691149A4
:102E4000B0FA80F0C0F11F0000EB800051F8203094
:102E50006BB101EB800000F10803416849684160F3
:102E6000994201D149684160C8681060704750209C
:102E700080F31188BFF34F8FBFF36F8FFEE7000021
:102E800038000020B00100201CB533480168334AE7
:102E9000914207D1502080F31188BFF34F8FBFF3C9
:102EA0006F8FFEE700682D49491E884207D15020E8
:102EB00080F31188BFF34F8FBFF36F8FFEE7284970
:102EC00008780190FF20087008788DF800009DF8C0
:102ED00000009DF8002000F0F000904207D0502044
:102EE00080F31188BFF34F8FBFF36F8FFEE79DF81C
:102EF00000001C4A00F0500010700720906007E0AE
:102F00009068401E90609DF8000040008DF8000021
:102F10009DF800000006F3D4107A000200F4E0608F
:102F20009060019808700C482030016841F47001ED
:102F30000160016841F070410160FFF757FE002019
:102F40005060FDF769F90848016841F040410160AF
:102F5000FDF752F900201CBD00ED00E071C20F41E9
:102F600000E400E0A000002034EF00E070B50E4661
:102F7000050013D0D6B105FB06F04830FFF742FC40
:102F8000040009D004F1480120468EB10160C0E977
:102F90000F56012100F0B8F8204670BD502080F394
:102FA0001188BFF34F8FBFF36F8FFEE70020E4E778
:102FB0000060ECE72DE9FF4F83B09B468A46040092
:102FC0004FF0000603D0BAF1000F08D011E05020F6
:102FD00080F31188BFF34F8FBFF36F8FFEE7206C34
:102FE00038B1502080F31188BFF34F8FBFF36F8F3C
:102FF000FEE700F01DFBDFF80C814FF000094FF0F9
:10300000805748B9059838B1502080F31188BFF334
:103010004F8FBFF36F8FFEE7FFF786FDA56B1DB3E4
:1030200051462046E668FFF71DF9BBF1000F13D0AB
:10303000E660606A50B104F1240000F0BDFB28B1E5
:10304000C8F80070BFF34F8FBFF36F8FFFF78CFD91
:10305000012007B0BDE8F08F6D1EA5632069002830
:10306000F4D004F11000E8E7059808B11EB106E0BD
:10307000FFF77AFD27E06846FFF786FE0126FFF797
:1030800073FDFFF7CBFEFFF74FFD94F94400401CA2
:1030900001D184F8449094F94500401C01D184F892
:1030A0004590FFF761FD05A9684600F081F9002809
:1030B00020460AD0FFF728FB00F0B8FB2046FFF7B8
:1030C000DDF90028A8D00020C3E7FFF7D7F990B1B9
:1030D00004F124000599FFF723FE2046FFF714FBB7
:1030E00000F0A4FB002897D1C8F80070BFF34F8F01
:1030F000BFF36F8F90E72046FFF706FB00F096FBCB
:103100008AE7000004ED00E070B50D46040025D00C
:10311000FFF70AFDD4E90F20216802FB001161606E
:103120000021A1632168A1600A46D4E90F01401E75
:1031300000FB0121E16021464FF0FF3001F8440F10
:10314000487004F110008DB1FFF7BBFC04F12400BE
:10315000FFF7B7FCFFF708FD012070BD502080F39A
:103160001188BFF34F8FBFF36F8FFEE721690029EE
:10317000F0D000F021FB0028ECD004494FF0805043
:103180000860BFF34F8FBFF36F8FE3E704ED00E0FC
:103190002DE9FF4F83B01F468B4604004FF0000619
:1031A00003D0BBF1000F08D011E0502080F311884C
:1031B000BFF34F8FBFF36F8FFEE7206C38B1502005
:1031C00080F31188BFF34F8FBFF36F8FFEE7022F9D
:1031D0000AD1E06B012807D0502080F31188BFF39B
:1031E0004F8FBFF36F8FFEE700F022FADFF80091F8
:1031F0004FF0000A4FF0805848B9059838B1502078
:1032000080F31188BFF34F8FBFF36F8FFEE7FFF797
:103210008BFCA06BE16B884205D3022F03D005988D
:10322000C8B1DEB11EE03A4659462046FFF72DF8F8
:10323000616A19B104F1240000F0BEFA28B1C9F89E
:103240000080BFF34F8FBFF36F8FFFF78DFC01201E
:1032500007B0BDE8F08FFFF787FC21E06846FFF775
:1032600093FD0126FFF780FCFFF7D8FDFFF75CFC1C
:1032700094F94400401C01D184F844A094F945001D
:10328000401C01D184F845A0FFF76EFC05A96846F3
:1032900000F08EF830B12046FFF736FA00F0C6FA9B
:1032A0000020D5E7FFF740FCA06BE16B884201D11D
:1032B000012500E00025FFF757FC95B104F110004F
:1032C0000599FFF72DFD2046FFF71EFA00F0AEFA34
:1032D00000289CD1C9F80080BFF34F8FBFF36F8FD8
:1032E00095E72046FFF710FA00F0A0FA8FE70000FC
:1032F00004ED00E02DE9F0471F46904689460400A2
:1033000003D0B9F1000F08D011E0502080F31188EC
:10331000BFF34F8FBFF36F8FFEE7206C38B15020A3
:1033200080F31188BFF34F8FBFF36F8FFEE7022F3B
:103330000AD1E06B012807D0502080F31188BFF339
:103340004F8FBFF36F8FFEE7FFF760FC5020EFF366
:10335000118680F31188BFF34F8FBFF36F8FA06B7F
:10336000E16B884206D3022F04D0002086F3118837
:10337000BDE8F08794F945503A4649462046FEF7A5
:1033800084FF681C04D06D1C84F845500120EDE7D3
:10339000606A0028FAD004F1240000F00DFA002839
:1033A000F4D0B8F1000FF1D00121C8F80010EDE71A
:1033B00070B50D46040019D005B3FFF7B5FB164AEA
:1033C000D06829684B1C0FD02368126A934202D040
:1033D000626882421AD96268801A884216D2081A34
:1033E00028602046FFF7D0FC002410E0502080F336
:1033F0001188BFF34F8FBFF36F8FFEE7502080F32C
:103400001188BFF34F8FBFF36F8FFEE70124FFF7E3
:10341000ABFB204670BD0000380000202DE9FF5FA7
:103420008346DDE90E87994616468A469000FFF7E7
:10343000E9F905001AD04C20FFF7E4F9040012D096
:1034400025630021CDE90241CDE900874B46324694
:1034500051465846FEF78AFF2046FEF749FE0120F6
:1034600004B0BDE8F09F2846FFF792FB4FF0FF3015
:10347000F6E700002DE9F0411F4690460D46012673
:1034800090B10446FFF750FB0FB1606C386094F8C0
:103490004800022184F84810B8F1050F16D2DFE881
:1034A00008F0150B0E141200502080F31188BFF3A2
:1034B0004F8FBFF36F8FFEE7616C294301E0616CB2
:1034C000491C616402E0022803D06564012802D02F
:1034D0002AE0002628E0201DFFF7E0FA154DE06AFB
:1034E00001212A69814011432961134900EB8000C1
:1034F00001EB8000211DFFF70AFBA06A38B15020C4
:1035000080F31188BFF34F8FBFF36F8FFEE7E06A40
:103510002968C96A884207D908494FF08050086075
:10352000BFF34F8FBFF36F8FFFF71EFB3046BDE831
:10353000F081000038000020B001002004ED00E020
:103540002DE9F0471F46DDF8209092460D46040015
:103550004FF001081AD0FFF759FB5020EFF3118606
:1035600080F31188BFF34F8FBFF36F8F0FB1606C83
:10357000386094F84800022184F84810BAF1050F29
:1035800016D2DFE80AF0150B0E141200502080F35B
:103590001188BFF34F8FBFF36F8FFEE7616C294334
:1035A00001E0616C491C616402E0022803D065649B
:1035B000012803D032E04FF000082FE0A06A38B1B4
:1035C000502080F31188BFF34F8FBFF36F8FFEE75A
:1035D000154D286B012778B104F118011348FFF746
:1035E00096FAE06A2968C96A884217D9B9F1000FCA
:1035F00013D0C9F8007011E0201DFFF74FFAE06A00
:103600002A6907FA00F11143296100EB800107489C
:10361000B43800EB8100211DE1E7EF6186F31188EA
:103620004046BDE8F087000038000020640200201A
:103630000548416919B1006B18B10020704701209D
:103640007047022070470000380000200148C06821
:1036500070470000380000202DE9F041314F00266E
:10366000386B18B1B869401CB86152E0FD686D1C38
:10367000FD6013D1786B006838B1502080F3118859
:10368000BFF34F8FBFF36F8FFEE7786BB96B796332
:10369000B863386A401C3862FEF7B4FFB86ADFF8D6
:1036A0008880854209D3786B006890B1786BC068D8
:1036B000C468606885420FD2B8623868C06A00EB9F
:1036C000800158F82100012800D90126B86900B30B
:1036D00021E04FF0FF30EFE7201DFFF7DFF9A06A90
:1036E00018B104F11800FFF7D9F9E06A01213A692D
:1036F00081401143396100EB800108EB8100211DFD
:10370000FFF705FAE06A3968C96A8842CBD3012617
:10371000C9E7FFF7D5F9F86900B101263046BDE8E1
:10372000F081000038000020B00100202DE9F041B8
:103730001E46154688460746FFF7F6F91C4C2068DA
:1037400090F84800022814D02068416CB9434164C5
:103750002168012081F848005EB101213046FEF762
:103760008FFC14494FF080500860BFF34F8FBFF3B8
:103770006F8FFFF7F9F9FFF7D7F915B12068406CA3
:103780002860206890F8480001280ED02068416C1D
:1037900021EA0801416401252168002081F84800E0
:1037A000FFF7E2F92846BDE8F0810025F4E70000C4
:1037B0003800002004ED00E02DE9F041C068C46845
:1037C000ACB104F118000746FFF768F9154D286BF6
:1037D0000126A0B139461448FFF799F9E06A296833
:1037E000C96A88421CD90120EE61BDE8F0815020F1
:1037F00080F31188BFF34F8FBFF36F8FFEE7201D5B
:10380000FFF74CF9E06A2A6906FA00F111432961D1
:10381000054900EB8000B43901EB8000211DDBE796
:103820000020E2E738000020640200202DE9F04784
:103830002C4D00242746286B38B1FFF775F9286B0B
:10384000401E2863286B40B146E0502080F3118869
:10385000BFF34F8FBFF36F8FFEE7A86822490126A1
:10386000D0B3A1F1B4098846D8F80010E9B1D8F86E
:103870000C00C46804F11800FFF710F9201DFFF7D1
:103880000DF9E06A2A6906FA00F11143296100EB9B
:10389000800109EB8100211DFFF739F9E06A2968F1
:1038A000C96A8842E0D3EE61DEE70CB1FEF7AAFEFA
:1038B000AC693CB1FFF7D0FE00B1EE61641EF9D1F6
:1038C0000020A861E86938B1084901273807086075
:1038D000BFF34F8FBFF36F8FFFF746F93846BDE850
:1038E000F0870000380000206402002004ED00E0B2
:1038F0002DE9F0470746994616460D462820DDF883
:1039000020A0FEF77FFF04000ED0B8464F46D146F8
:103910006DB1FEF755FC04F11801C4F8008081E890
:10392000E002201DFFF7D8F82046BDE8F0875020C0
:1039300080F31188BFF34F8FBFF36F8FFEE7000056
:103940001CB5FEF73DFC0C48006860B10A49022036
:10395000091DCDE90001C201002308A10948FFF7B4
:103960005DFD002807D1502080F31188BFF34F8FF1
:10397000BFF36F8FFEE71CBD74000020546D7220F2
:1039800053766300E1260008FEB51F460300089E3B
:103990004FF0000013D0124D2C68002C0ED08DE893
:1039A0000E00062915DAFFF743FE02284FF0000348
:1039B0000DD0002269462868FFF7EAFBFEBD5020C3
:1039C00080F31188BFF34F8FBFF36F8FFEE732464E
:1039D000F0E700233A4669462046FFF78BFCFEBD20
:1039E000740000201D040008643A0008F513000864
:1039F000000000000000000080000000803A000885
:103A000051120008000000000000000080000000CB
:103A10008C3A0008051400080000000000000000B7
:103A200080000000703A0008FD130008000000004C
:103A300000000000800000009C3A0008CD1400083F
:103A400000000000000000008000000000000000F6
:103A5000000000000102030406070809000000003E
:103A6000010203044465636F646167650000000040
:103A700047657374696F6E526164696F000000007E
:103A80004166666963686575720000004765737416
:103A9000696F6E546F757273000000005265696E35
:103AA00069740000C43A000800000020B40000005F
:103AB000C4190008783B0008B4000020144200003C
:103AC000D419000800000000000000000000000001
:103AD00000000000000000000000000000000000E6
:103AE00000000000000000000000000001000000D5
:103AF00010000000000000000024F400000000009E
:103B000000000000000000000000000000000000B5
:103B100000000000000000000000000000000000A5
:103B20000000000000000000000000000000000095
:103B30000000000000000000000000000000000085
:103B40000000000000000000000000000000000075
:103B50000000000000000000000000000000000065
:103B60000000000000000000AAAAAAAA00000000AD
:083B700000000000000000004D
:04000005080001C529
:00000001FF
